{
  "contractName": "UniswapV2Factory",
  "abi": [
    {
      "inputs": [
        {
          "internalType": "address",
          "name": "_feeToSetter",
          "type": "address"
        }
      ],
      "stateMutability": "nonpayable",
      "type": "constructor"
    },
    {
      "anonymous": false,
      "inputs": [
        {
          "indexed": true,
          "internalType": "address",
          "name": "token0",
          "type": "address"
        },
        {
          "indexed": true,
          "internalType": "address",
          "name": "token1",
          "type": "address"
        },
        {
          "indexed": false,
          "internalType": "address",
          "name": "pair",
          "type": "address"
        },
        {
          "indexed": false,
          "internalType": "uint256",
          "name": "",
          "type": "uint256"
        }
      ],
      "name": "PairCreated",
      "type": "event"
    },
    {
      "inputs": [
        {
          "internalType": "uint256",
          "name": "",
          "type": "uint256"
        }
      ],
      "name": "allPairs",
      "outputs": [
        {
          "internalType": "address",
          "name": "",
          "type": "address"
        }
      ],
      "stateMutability": "view",
      "type": "function",
      "constant": true
    },
    {
      "inputs": [],
      "name": "feeTo",
      "outputs": [
        {
          "internalType": "address",
          "name": "",
          "type": "address"
        }
      ],
      "stateMutability": "view",
      "type": "function",
      "constant": true
    },
    {
      "inputs": [],
      "name": "feeToSetter",
      "outputs": [
        {
          "internalType": "address",
          "name": "",
          "type": "address"
        }
      ],
      "stateMutability": "view",
      "type": "function",
      "constant": true
    },
    {
      "inputs": [
        {
          "internalType": "address",
          "name": "",
          "type": "address"
        },
        {
          "internalType": "address",
          "name": "",
          "type": "address"
        }
      ],
      "name": "getPair",
      "outputs": [
        {
          "internalType": "address",
          "name": "",
          "type": "address"
        }
      ],
      "stateMutability": "view",
      "type": "function",
      "constant": true
    },
    {
      "inputs": [],
      "name": "allPairsLength",
      "outputs": [
        {
          "internalType": "uint256",
          "name": "",
          "type": "uint256"
        }
      ],
      "stateMutability": "view",
      "type": "function",
      "constant": true
    },
    {
      "inputs": [
        {
          "internalType": "address",
          "name": "tokenA",
          "type": "address"
        },
        {
          "internalType": "address",
          "name": "tokenB",
          "type": "address"
        }
      ],
      "name": "createPair",
      "outputs": [
        {
          "internalType": "address",
          "name": "pair",
          "type": "address"
        }
      ],
      "stateMutability": "nonpayable",
      "type": "function"
    },
    {
      "inputs": [
        {
          "internalType": "address",
          "name": "_feeTo",
          "type": "address"
        }
      ],
      "name": "setFeeTo",
      "outputs": [],
      "stateMutability": "nonpayable",
      "type": "function"
    },
    {
      "inputs": [
        {
          "internalType": "address",
          "name": "_feeToSetter",
          "type": "address"
        }
      ],
      "name": "setFeeToSetter",
      "outputs": [],
      "stateMutability": "nonpayable",
      "type": "function"
    }
  ],
  "bytecode": "0x608060405234801561001057600080fd5b50604051612c38380380612c3883398101604081905261002f91610054565b600180546001600160a01b0319166001600160a01b0392909216919091179055610082565b600060208284031215610065578081fd5b81516001600160a01b038116811461007b578182fd5b9392505050565b612ba7806100916000396000f3fe608060405234801561001057600080fd5b50600436106100885760003560e01c8063a2e74af61161005b578063a2e74af6146100db578063c9c65396146100f0578063e6a4390514610103578063f46901ed1461011657610088565b8063017e7e581461008d578063094b7415146100ab5780631e3dd18b146100b3578063574f2ba3146100c6575b600080fd5b610095610129565b6040516100a2919061055b565b60405180910390f35b610095610138565b6100956100c136600461051c565b610147565b6100ce610171565b6040516100a2919061066e565b6100ee6100e93660046104c9565b610177565b005b6100956100fe3660046104ea565b6101cc565b6100956101113660046104ea565b61042e565b6100ee6101243660046104c9565b610454565b6000546001600160a01b031681565b6001546001600160a01b031681565b6003818154811061015757600080fd5b6000918252602090912001546001600160a01b0316905081565b60035490565b6001546001600160a01b031633146101aa5760405162461bcd60e51b81526004016101a1906105d9565b60405180910390fd5b600180546001600160a01b0319166001600160a01b0392909216919091179055565b6000816001600160a01b0316836001600160a01b031614156102005760405162461bcd60e51b81526004016101a1906105a2565b600080836001600160a01b0316856001600160a01b031610610223578385610226565b84845b90925090506001600160a01b0382166102515760405162461bcd60e51b81526004016101a190610637565b6001600160a01b038281166000908152600260209081526040808320858516845290915290205416156102965760405162461bcd60e51b81526004016101a190610607565b6000604051806020016102a8906104a0565b6020820181038252601f19601f820116604052509050600083836040516020016102d3929190610534565b604051602081830303815290604052805190602001209050808251602084016000f560405163485cc95560e01b81529095506001600160a01b0386169063485cc95590610326908790879060040161056f565b600060405180830381600087803b15801561034057600080fd5b505af1158015610354573d6000803e3d6000fd5b505050506001600160a01b0384811660008181526002602081815260408084208987168086529083528185208054978d166001600160a01b03199889168117909155938352818520868652909252808420805487168417905560038054600181018255948190527fc2575a0e9e593c00f959f8c92f12db2869c3395a3b0502d05e2516446f71f85b9094018054909616909217909455905490517f0d3648bd0f6ba80134a33ba9275ac585d9d315f0ad8355cddefde31afa28d0e99161041c918a9190610589565b60405180910390a35050505092915050565b60026020908152600092835260408084209091529082529020546001600160a01b031681565b6001546001600160a01b0316331461047e5760405162461bcd60e51b81526004016101a1906105d9565b600080546001600160a01b0319166001600160a01b0392909216919091179055565b6124fa8061067883390190565b80356001600160a01b03811681146104c457600080fd5b919050565b6000602082840312156104da578081fd5b6104e3826104ad565b9392505050565b600080604083850312156104fc578081fd5b610505836104ad565b9150610513602084016104ad565b90509250929050565b60006020828403121561052d578081fd5b5035919050565b6bffffffffffffffffffffffff19606093841b811682529190921b16601482015260280190565b6001600160a01b0391909116815260200190565b6001600160a01b0392831681529116602082015260400190565b6001600160a01b03929092168252602082015260400190565b6020808252601e908201527f556e697377617056323a204944454e544943414c5f4144445245535345530000604082015260600190565b6020808252601490820152732ab734b9bbb0b82b191d102327a92124a22222a760611b604082015260600190565b602080825260169082015275556e697377617056323a20504149525f45584953545360501b604082015260600190565b60208082526017908201527f556e697377617056323a205a45524f5f41444452455353000000000000000000604082015260600190565b9081526020019056fe60806040526001600c5534801561001557600080fd5b50604080518082018252600a8152692ab734b9bbb0b8102b1960b11b6020918201528151808301835260018152603160f81b90820152905146916100c3917f8b73c3c69bb8fe3d512ecc4cf759cc79239f7b179b0ffacaa9a75d522b39400f917fbfcc8ef98ffbf7b6c3fec7bf5185b566b9863e35a9d83acd49ad6824b5969738917fc89efdaa54c0f20c7adf612882df0950f5a951637e0307cdcb4c672f298b8bc69186913091016100f6565b60408051601f19818403018152919052805160209091012060035550600580546001600160a01b03191633179055610122565b9485526020850193909352604084019190915260608301526001600160a01b0316608082015260a00190565b6123c9806101316000396000f3fe608060405234801561001057600080fd5b50600436106101a95760003560e01c80636a627842116100f9578063ba9a7a5611610097578063d21220a711610071578063d21220a71461033d578063d505accf14610345578063dd62ed3e14610358578063fff6cae91461036b576101a9565b8063ba9a7a561461031a578063bc25cf7714610322578063c45a015514610335576101a9565b80637ecebe00116100d35780637ecebe00146102cb57806389afcb44146102de57806395d89b41146102ff578063a9059cbb14610307576101a9565b80636a6278421461029d57806370a08231146102b05780637464fc3d146102c3576101a9565b806323b872dd116101665780633644e515116101405780633644e51514610272578063485cc9551461027a5780635909c0d51461028d5780635a3d549314610295576101a9565b806323b872dd1461024257806330adf81f14610255578063313ce5671461025d576101a9565b8063022c0d9f146101ae57806306fdde03146101c35780630902f1ac146101e1578063095ea7b3146101f85780630dfe16811461021857806318160ddd1461022d575b600080fd5b6101c16101bc366004611cf1565b610373565b005b6101cb6107b6565b6040516101d89190611e98565b60405180910390f35b6101e96107dc565b6040516101d8939291906121b4565b61020b610206366004611c8e565b610806565b6040516101d89190611e32565b61022061081c565b6040516101d89190611db9565b61023561082b565b6040516101d89190611e3d565b61020b610250366004611bd9565b610831565b6102356108c6565b6102656108ea565b6040516101d89190612206565b6102356108ef565b6101c1610288366004611ba1565b6108f5565b61023561094d565b610235610953565b6102356102ab366004611b69565b610959565b6102356102be366004611b69565b610c13565b610235610c25565b6102356102d9366004611b69565b610c2b565b6102f16102ec366004611b69565b610c3d565b6040516101d89291906121dd565b6101cb610fb6565b61020b610315366004611c8e565b610fd8565b610235610fe5565b6101c1610330366004611b69565b610feb565b610220611111565b610220611120565b6101c1610353366004611c19565b61112f565b610235610366366004611ba1565b6112aa565b6101c16112c7565b600c5460011461039e5760405162461bcd60e51b815260040161039590612027565b60405180910390fd5b6000600c55841515806103b15750600084115b6103cd5760405162461bcd60e51b815260040161039590611ecb565b6000806103d86107dc565b5091509150816001600160701b0316871080156103fd5750806001600160701b031686105b6104195760405162461bcd60e51b815260040161039590611fba565b60065460075460009182916001600160a01b039182169190811690891682148015906104575750806001600160a01b0316896001600160a01b031614155b6104735760405162461bcd60e51b815260040161039590611f54565b8a1561048457610484828a8d611413565b891561049557610495818a8c611413565b8615610502576040516304347a1760e21b81526001600160a01b038a16906310d1e85c906104cf9033908f908f908e908e90600401611de6565b600060405180830381600087803b1580156104e957600080fd5b505af11580156104fd573d6000803e3d6000fd5b505050505b6040516370a0823160e01b81526001600160a01b038316906370a082319061052e903090600401611db9565b60206040518083038186803b15801561054657600080fd5b505afa15801561055a573d6000803e3d6000fd5b505050506040513d601f19601f8201168201806040525081019061057e9190611cd9565b6040516370a0823160e01b81529094506001600160a01b038216906370a08231906105ad903090600401611db9565b60206040518083038186803b1580156105c557600080fd5b505afa1580156105d9573d6000803e3d6000fd5b505050506040513d601f19601f820116820180604052508101906105fd9190611cd9565b92505050600089856001600160701b031661061891906122b4565b8311610625576000610642565b6106388a6001600160701b0387166122b4565b61064290846122b4565b905060006106598a6001600160701b0387166122b4565b8311610666576000610683565b6106798a6001600160701b0387166122b4565b61068390846122b4565b905060008211806106945750600081115b6106b05760405162461bcd60e51b815260040161039590611f10565b60006106bd836003612295565b6106c9866103e8612295565b6106d391906122b4565b905060006106e2836003612295565b6106ee866103e8612295565b6106f891906122b4565b90506107106001600160701b03808916908a16612295565b61071d90620f4240612295565b6107278284612295565b10156107455760405162461bcd60e51b815260040161039590612052565b505061075384848888611557565b886001600160a01b0316336001600160a01b03167fd78ad95fa46c994b6551d0da85fc275fe613ce37657fb8d5e3d130840159d82284848f8f60405161079c94939291906121eb565b60405180910390a350506001600c55505050505050505050565b6040518060400160405280600a8152602001692ab734b9bbb0b8102b1960b11b81525081565b6008546001600160701b0380821692600160701b830490911691600160e01b900463ffffffff1690565b6000610813338484611736565b50600192915050565b6006546001600160a01b031681565b60005481565b6001600160a01b0383166000908152600260209081526040808320338452909152812054600019146108b1576001600160a01b038416600090815260026020908152604080832033845290915290205461088c9083906122b4565b6001600160a01b03851660009081526002602090815260408083203384529091529020555b6108bc84848461179e565b5060019392505050565b7f6e71edae12b1b97f4d1f60370fef10105fa2faae0126114a169c64845d6126c981565b601281565b60035481565b6005546001600160a01b0316331461091f5760405162461bcd60e51b815260040161039590612108565b600680546001600160a01b039384166001600160a01b03199182161790915560078054929093169116179055565b60095481565b600a5481565b6000600c5460011461097d5760405162461bcd60e51b815260040161039590612027565b6000600c8190558061098d6107dc565b506006546040516370a0823160e01b81529294509092506000916001600160a01b03909116906370a08231906109c7903090600401611db9565b60206040518083038186803b1580156109df57600080fd5b505afa1580156109f3573d6000803e3d6000fd5b505050506040513d601f19601f82011682018060405250810190610a179190611cd9565b6007546040516370a0823160e01b81529192506000916001600160a01b03909116906370a0823190610a4d903090600401611db9565b60206040518083038186803b158015610a6557600080fd5b505afa158015610a79573d6000803e3d6000fd5b505050506040513d601f19601f82011682018060405250810190610a9d9190611cd9565b90506000610ab46001600160701b038616846122b4565b90506000610acb6001600160701b038616846122b4565b90506000610ad98787611844565b60005490915080610b17576103e8610af9610af48587612295565b611992565b610b0391906122b4565b9850610b1260006103e8611a02565b610b5e565b610b5b6001600160701b038916610b2e8387612295565b610b389190612252565b6001600160701b038916610b4c8487612295565b610b569190612252565b611a91565b98505b60008911610b7e5760405162461bcd60e51b8152600401610395906120c0565b610b888a8a611a02565b610b9486868a8a611557565b8115610bbd57600854610bb9906001600160701b03600160701b820481169116612295565b600b555b336001600160a01b03167f4c209b5fc8ad50758f13e2e1088ba56a560dff690a1c6fef26394f4c03821c4f8585604051610bf89291906121dd565b60405180910390a250506001600c5550949695505050505050565b60016020526000908152604090205481565b600b5481565b60046020526000908152604090205481565b600080600c54600114610c625760405162461bcd60e51b815260040161039590612027565b6000600c81905580610c726107dc565b506006546007546040516370a0823160e01b81529395509193506001600160a01b039081169291169060009083906370a0823190610cb4903090600401611db9565b60206040518083038186803b158015610ccc57600080fd5b505afa158015610ce0573d6000803e3d6000fd5b505050506040513d601f19601f82011682018060405250810190610d049190611cd9565b90506000826001600160a01b03166370a08231306040518263ffffffff1660e01b8152600401610d349190611db9565b60206040518083038186803b158015610d4c57600080fd5b505afa158015610d60573d6000803e3d6000fd5b505050506040513d601f19601f82011682018060405250810190610d849190611cd9565b30600090815260016020526040812054919250610da18888611844565b60005490915080610db28685612295565b610dbc9190612252565b9a5080610dc98585612295565b610dd39190612252565b995060008b118015610de5575060008a115b610e015760405162461bcd60e51b815260040161039590612078565b610e0b3084611aa9565b610e16878d8d611413565b610e21868d8c611413565b6040516370a0823160e01b81526001600160a01b038816906370a0823190610e4d903090600401611db9565b60206040518083038186803b158015610e6557600080fd5b505afa158015610e79573d6000803e3d6000fd5b505050506040513d601f19601f82011682018060405250810190610e9d9190611cd9565b6040516370a0823160e01b81529095506001600160a01b038716906370a0823190610ecc903090600401611db9565b60206040518083038186803b158015610ee457600080fd5b505afa158015610ef8573d6000803e3d6000fd5b505050506040513d601f19601f82011682018060405250810190610f1c9190611cd9565b9350610f2a85858b8b611557565b8115610f5357600854610f4f906001600160701b03600160701b820481169116612295565b600b555b8b6001600160a01b0316336001600160a01b03167fdccd412f0b1252819cb1fd330b93224ca42612892bb3f4f789976e6d819364968d8d604051610f989291906121dd565b60405180910390a35050505050505050506001600c81905550915091565b604051806040016040528060068152602001652aa72496ab1960d11b81525081565b600061081333848461179e565b6103e881565b600c5460011461100d5760405162461bcd60e51b815260040161039590612027565b6000600c556006546007546008546040516370a0823160e01b81526001600160a01b0393841693909216916110bf91849186916001600160701b03169083906370a0823190611060903090600401611db9565b60206040518083038186803b15801561107857600080fd5b505afa15801561108c573d6000803e3d6000fd5b505050506040513d601f19601f820116820180604052508101906110b09190611cd9565b6110ba91906122b4565b611413565b6008546040516370a0823160e01b81526111079183918691600160701b90046001600160701b0316906001600160a01b038416906370a0823190611060903090600401611db9565b50506001600c5550565b6005546001600160a01b031681565b6007546001600160a01b031681565b4284101561114f5760405162461bcd60e51b815260040161039590611ffb565b6003546001600160a01b038816600090815260046020526040812080549192917f6e71edae12b1b97f4d1f60370fef10105fa2faae0126114a169c64845d6126c9918b918b918b9190876111a283612320565b919050558a6040516020016111bc96959493929190611e46565b604051602081830303815290604052805190602001206040516020016111e3929190611d9e565b6040516020818303038152906040528051906020012090506000600182868686604051600081526020016040526040516112209493929190611e7a565b6020604051602081039080840390855afa158015611242573d6000803e3d6000fd5b5050604051601f1901519150506001600160a01b038116158015906112785750886001600160a01b0316816001600160a01b0316145b6112945760405162461bcd60e51b815260040161039590611f83565b61129f898989611736565b505050505050505050565b600260209081526000928352604080842090915290825290205481565b600c546001146112e95760405162461bcd60e51b815260040161039590612027565b6000600c556006546040516370a0823160e01b815261140c916001600160a01b0316906370a0823190611320903090600401611db9565b60206040518083038186803b15801561133857600080fd5b505afa15801561134c573d6000803e3d6000fd5b505050506040513d601f19601f820116820180604052508101906113709190611cd9565b6007546040516370a0823160e01b81526001600160a01b03909116906370a08231906113a0903090600401611db9565b60206040518083038186803b1580156113b857600080fd5b505afa1580156113cc573d6000803e3d6000fd5b505050506040513d601f19601f820116820180604052508101906113f09190611cd9565b6008546001600160701b0380821691600160701b900416611557565b6001600c55565b604080518082018252601981527f7472616e7366657228616464726573732c75696e7432353629000000000000006020909101525160009081906001600160a01b038616907fa9059cbb2ab09eb219583f4a59a5d0623ade346d962bcd4e46b11da047c9049b9061148a9087908790602401611dcd565b60408051601f198184030181529181526020820180516001600160e01b03166001600160e01b03199094169390931790925290516114c89190611d82565b6000604051808303816000865af19150503d8060008114611505576040519150601f19603f3d011682016040523d82523d6000602084013e61150a565b606091505b50915091508180156115345750805115806115345750808060200190518101906115349190611cb9565b6115505760405162461bcd60e51b815260040161039590612163565b5050505050565b6001600160701b03841180159061157e57506fffffffffffffffffffffffffffffffff8311155b61159a5760405162461bcd60e51b815260040161039590612136565b60006115ab6401000000004261233b565b6008549091506000906115cb90600160e01b900463ffffffff16836122cb565b905060008163ffffffff161180156115eb57506001600160701b03841615155b80156115ff57506001600160701b03831615155b1561168e578063ffffffff166116278561161886611b35565b6001600160e01b031690611b54565b6001600160e01b031661163a9190612295565b6009600082825461164b9190612214565b909155505063ffffffff81166116648461161887611b35565b6001600160e01b03166116779190612295565b600a60008282546116889190612214565b90915550505b600880546dffffffffffffffffffffffffffff19166001600160701b03888116919091176dffffffffffffffffffffffffffff60701b1916600160701b8883168102919091176001600160e01b0316600160e01b63ffffffff87160217928390556040517f1c411e9a96e071241c2f21f7726b17ae89e3cab4c78be50e062b03a9fffbbad1936117269381811693909104169061219a565b60405180910390a1505050505050565b6001600160a01b0380841660008181526002602090815260408083209487168084529490915290819020849055517f8c5be1e5ebec7d5bd14f71427d1e84f3dd0314c0f7b2291e5b200ac8c7c3b92590611791908590611e3d565b60405180910390a3505050565b6001600160a01b0383166000908152600160205260409020546117c29082906122b4565b6001600160a01b0380851660009081526001602052604080822093909355908416815220546117f2908290612214565b6001600160a01b0380841660008181526001602052604090819020939093559151908516907fddf252ad1be2c89b69c2b068fc378daa952ba7f163c4a11628f55a4df523b3ef90611791908590611e3d565b600080600560009054906101000a90046001600160a01b03166001600160a01b031663017e7e586040518163ffffffff1660e01b815260040160206040518083038186803b15801561189557600080fd5b505afa1580156118a9573d6000803e3d6000fd5b505050506040513d601f19601f820116820180604052508101906118cd9190611b85565b600b546001600160a01b03821615801594509192509061197e578015611979576000611908610af46001600160701b03808816908916612295565b9050600061191583611992565b90508082111561197657600061192b82846122b4565b6000546119389190612295565b9050600082611948856005612295565b6119529190612214565b905060006119608284612252565b90508015611972576119728782611a02565b5050505b50505b61198a565b801561198a576000600b555b505092915050565b600060038211156119f357508060006119ac600283612252565b6119b7906001612214565b90505b818110156119ed579050806002816119d28186612252565b6119dc9190612214565b6119e69190612252565b90506119ba565b506119fd565b81156119fd575060015b919050565b80600054611a109190612214565b60009081556001600160a01b038316815260016020526040902054611a36908290612214565b6001600160a01b0383166000818152600160205260408082209390935591519091907fddf252ad1be2c89b69c2b068fc378daa952ba7f163c4a11628f55a4df523b3ef90611a85908590611e3d565b60405180910390a35050565b6000818310611aa05781611aa2565b825b9392505050565b6001600160a01b038216600090815260016020526040902054611acd9082906122b4565b6001600160a01b03831660009081526001602052604081209190915554611af59082906122b4565b60009081556040516001600160a01b038416907fddf252ad1be2c89b69c2b068fc378daa952ba7f163c4a11628f55a4df523b3ef90611a85908590611e3d565b6000611b4e600160701b6001600160701b038416612266565b92915050565b6000611aa26001600160701b0383168461222c565b600060208284031215611b7a578081fd5b8135611aa28161237b565b600060208284031215611b96578081fd5b8151611aa28161237b565b60008060408385031215611bb3578081fd5b8235611bbe8161237b565b91506020830135611bce8161237b565b809150509250929050565b600080600060608486031215611bed578081fd5b8335611bf88161237b565b92506020840135611c088161237b565b929592945050506040919091013590565b600080600080600080600060e0888a031215611c33578283fd5b8735611c3e8161237b565b96506020880135611c4e8161237b565b95506040880135945060608801359350608088013560ff81168114611c71578384fd5b9699959850939692959460a0840135945060c09093013592915050565b60008060408385031215611ca0578182fd5b8235611cab8161237b565b946020939093013593505050565b600060208284031215611cca578081fd5b81518015158114611aa2578182fd5b600060208284031215611cea578081fd5b5051919050565b600080600080600060808688031215611d08578081fd5b85359450602086013593506040860135611d218161237b565b9250606086013567ffffffffffffffff80821115611d3d578283fd5b818801915088601f830112611d50578283fd5b813581811115611d5e578384fd5b896020828501011115611d6f578384fd5b9699959850939650602001949392505050565b60008251611d948184602087016122f0565b9190910192915050565b61190160f01b81526002810192909252602282015260420190565b6001600160a01b0391909116815260200190565b6001600160a01b03929092168252602082015260400190565b600060018060a01b038716825285602083015284604083015260806060830152826080830152828460a084013781830160a090810191909152601f909201601f19160101949350505050565b901515815260200190565b90815260200190565b9586526001600160a01b0394851660208701529290931660408501526060840152608083019190915260a082015260c00190565b93845260ff9290921660208401526040830152606082015260800190565b6000602082528251806020840152611eb78160408501602087016122f0565b601f01601f19169190910160400192915050565b60208082526025908201527f556e697377617056323a20494e53554646494349454e545f4f55545055545f416040820152641353d5539560da1b606082015260800190565b60208082526024908201527f556e697377617056323a20494e53554646494349454e545f494e5055545f414d60408201526313d5539560e21b606082015260800190565b602080825260159082015274556e697377617056323a20494e56414c49445f544f60581b604082015260600190565b6020808252601c908201527f556e697377617056323a20494e56414c49445f5349474e415455524500000000604082015260600190565b60208082526021908201527f556e697377617056323a20494e53554646494349454e545f4c495155494449546040820152605960f81b606082015260800190565b602080825260129082015271155b9a5cddd85c158c8e881156141254915160721b604082015260600190565b602080825260119082015270155b9a5cddd85c158c8e881313d0d2d151607a1b604082015260600190565b6020808252600c908201526b556e697377617056323a204b60a01b604082015260600190565b60208082526028908201527f556e697377617056323a20494e53554646494349454e545f4c495155494449546040820152671657d0955493915160c21b606082015260800190565b60208082526028908201527f556e697377617056323a20494e53554646494349454e545f4c495155494449546040820152671657d3525395115160c21b606082015260800190565b6020808252601490820152732ab734b9bbb0b82b191d102327a92124a22222a760611b604082015260600190565b602080825260139082015272556e697377617056323a204f564552464c4f5760681b604082015260600190565b6020808252601a908201527f556e697377617056323a205452414e534645525f4641494c4544000000000000604082015260600190565b6001600160701b0392831681529116602082015260400190565b6001600160701b03938416815291909216602082015263ffffffff909116604082015260600190565b918252602082015260400190565b93845260208401929092526040830152606082015260800190565b60ff91909116815260200190565b600082198211156122275761222761234f565b500190565b60006001600160e01b038381168061224657612246612365565b92169190910492915050565b60008261226157612261612365565b500490565b60006001600160e01b038281168482168115158284048211161561228c5761228c61234f565b02949350505050565b60008160001904831182151516156122af576122af61234f565b500290565b6000828210156122c6576122c661234f565b500390565b600063ffffffff838116908316818110156122e8576122e861234f565b039392505050565b60005b8381101561230b5781810151838201526020016122f3565b8381111561231a576000848401525b50505050565b60006000198214156123345761233461234f565b5060010190565b60008261234a5761234a612365565b500690565b634e487b7160e01b600052601160045260246000fd5b634e487b7160e01b600052601260045260246000fd5b6001600160a01b038116811461239057600080fd5b5056fea2646970667358221220be684358fc1150d80233259ccfe95e4f3a91b00f5576b75aba6624ac45817f9164736f6c63430008000033a26469706673582212205269dd3f80d95b8968541bf39d49d575477dbf60fa656d13ca125a9dd05bdeed64736f6c63430008000033",
  "immutableReferences": {},
  "source": "//SPDX-License-Identifier: Unlicense\npragma solidity ^0.8.0;\n\nimport './interfaces/IUniswapV2Factory.sol';\nimport './UniswapV2Pair.sol';\n\ncontract UniswapV2Factory is IUniswapV2Factory {\n    address public override feeTo;\n    address public override feeToSetter;\n\n    mapping(address => mapping(address => address)) public override getPair;\n    address[] public override allPairs;\n\n    event PairCreated(address indexed token0, address indexed token1, address pair, uint);\n\n    constructor(address _feeToSetter) {\n        feeToSetter = _feeToSetter;\n    }\n\n    function allPairsLength() external view override returns (uint) {\n        return allPairs.length;\n    }\n\n    function createPair(address tokenA, address tokenB) external override returns (address pair) {\n        require(tokenA != tokenB, 'UniswapV2: IDENTICAL_ADDRESSES');\n        (address token0, address token1) = tokenA < tokenB ? (tokenA, tokenB) : (tokenB, tokenA);\n        require(token0 != address(0), 'UniswapV2: ZERO_ADDRESS');\n        require(getPair[token0][token1] == address(0), 'UniswapV2: PAIR_EXISTS'); // single check is sufficient\n        bytes memory bytecode = type(UniswapV2Pair).creationCode;\n        bytes32 salt = keccak256(abi.encodePacked(token0, token1));\n        assembly {\n            pair := create2(0, add(bytecode, 32), mload(bytecode), salt)\n        }\n        IUniswapV2Pair(pair).initialize(token0, token1);\n        getPair[token0][token1] = pair;\n        getPair[token1][token0] = pair; // populate mapping in the reverse direction\n        allPairs.push(pair);\n        emit PairCreated(token0, token1, pair, allPairs.length);\n    }\n\n    function setFeeTo(address _feeTo) external override {\n        require(msg.sender == feeToSetter, 'UniswapV2: FORBIDDEN');\n        feeTo = _feeTo;\n    }\n\n    function setFeeToSetter(address _feeToSetter) external override {\n        require(msg.sender == feeToSetter, 'UniswapV2: FORBIDDEN');\n        feeToSetter = _feeToSetter;\n    }\n}\n",
  "sourcePath": "/home/binderl/Documents/SCRIPT/TRUFFLE/MasterB/contracts/UniswapV2Factory.sol",
  "compiler": {
    "name": "solc",
    "version": "0.8.0+commit.c7dfd78e.Emscripten.clang"
  },
  "schemaVersion": "3.4.3",
  "updatedAt": "2022-01-03T00:26:39.490Z",
  "networkType": "ethereum",
  "devdoc": {
    "kind": "dev",
    "methods": {},
    "version": 1
  },
  "userdoc": {
    "kind": "user",
    "methods": {},
    "version": 1
  }
}